{
  "contractName": "SnatchVeggiesBank",
  "abi": [
    {
      "inputs": [],
      "stateMutability": "nonpayable",
      "type": "constructor"
    },
    {
      "anonymous": false,
      "inputs": [
        {
          "indexed": true,
          "internalType": "address",
          "name": "approver",
          "type": "address"
        },
        {
          "indexed": false,
          "internalType": "uint256",
          "name": "amount",
          "type": "uint256"
        }
      ],
      "name": "Approval",
      "type": "event"
    },
    {
      "anonymous": false,
      "inputs": [],
      "name": "Paused",
      "type": "event"
    },
    {
      "anonymous": false,
      "inputs": [
        {
          "indexed": true,
          "internalType": "address",
          "name": "from",
          "type": "address"
        },
        {
          "indexed": true,
          "internalType": "address",
          "name": "to",
          "type": "address"
        },
        {
          "indexed": false,
          "internalType": "uint256",
          "name": "amount",
          "type": "uint256"
        }
      ],
      "name": "Take",
      "type": "event"
    },
    {
      "anonymous": false,
      "inputs": [],
      "name": "Unpaused",
      "type": "event"
    },
    {
      "inputs": [
        {
          "internalType": "address",
          "name": "",
          "type": "address"
        }
      ],
      "name": "allowances",
      "outputs": [
        {
          "internalType": "uint256",
          "name": "",
          "type": "uint256"
        }
      ],
      "stateMutability": "view",
      "type": "function"
    },
    {
      "inputs": [],
      "name": "fee",
      "outputs": [
        {
          "internalType": "uint256",
          "name": "",
          "type": "uint256"
        }
      ],
      "stateMutability": "view",
      "type": "function"
    },
    {
      "inputs": [],
      "name": "messenger",
      "outputs": [
        {
          "internalType": "address payable",
          "name": "",
          "type": "address"
        }
      ],
      "stateMutability": "view",
      "type": "function"
    },
    {
      "inputs": [],
      "name": "owner",
      "outputs": [
        {
          "internalType": "address payable",
          "name": "",
          "type": "address"
        }
      ],
      "stateMutability": "view",
      "type": "function"
    },
    {
      "inputs": [],
      "name": "paused",
      "outputs": [
        {
          "internalType": "bool",
          "name": "",
          "type": "bool"
        }
      ],
      "stateMutability": "view",
      "type": "function"
    },
    {
      "stateMutability": "payable",
      "type": "receive"
    },
    {
      "inputs": [],
      "name": "pause",
      "outputs": [],
      "stateMutability": "nonpayable",
      "type": "function"
    },
    {
      "inputs": [],
      "name": "unpause",
      "outputs": [],
      "stateMutability": "nonpayable",
      "type": "function"
    },
    {
      "inputs": [
        {
          "internalType": "uint256",
          "name": "_fee",
          "type": "uint256"
        }
      ],
      "name": "changeFee",
      "outputs": [],
      "stateMutability": "nonpayable",
      "type": "function"
    },
    {
      "inputs": [
        {
          "internalType": "address",
          "name": "_newOwner",
          "type": "address"
        }
      ],
      "name": "changeOwner",
      "outputs": [],
      "stateMutability": "nonpayable",
      "type": "function"
    },
    {
      "inputs": [
        {
          "internalType": "address",
          "name": "_newMessenger",
          "type": "address"
        }
      ],
      "name": "changeMessenger",
      "outputs": [],
      "stateMutability": "nonpayable",
      "type": "function"
    },
    {
      "inputs": [],
      "name": "balanceETH",
      "outputs": [
        {
          "internalType": "uint256",
          "name": "",
          "type": "uint256"
        }
      ],
      "stateMutability": "view",
      "type": "function"
    },
    {
      "inputs": [
        {
          "internalType": "address",
          "name": "_to",
          "type": "address"
        },
        {
          "internalType": "uint256",
          "name": "_amount",
          "type": "uint256"
        }
      ],
      "name": "transferETH",
      "outputs": [],
      "stateMutability": "nonpayable",
      "type": "function"
    },
    {
      "inputs": [],
      "name": "approve",
      "outputs": [],
      "stateMutability": "payable",
      "type": "function"
    },
    {
      "inputs": [
        {
          "internalType": "address",
          "name": "_from",
          "type": "address"
        },
        {
          "internalType": "uint256",
          "name": "_amount",
          "type": "uint256"
        }
      ],
      "name": "take",
      "outputs": [],
      "stateMutability": "payable",
      "type": "function"
    }
  ],
  "bytecode": "0x608060405234801561000f575f80fd5b503360025f6101000a81548173ffffffffffffffffffffffffffffffffffffffff021916908373ffffffffffffffffffffffffffffffffffffffff1602179055503360035f6101000a81548173ffffffffffffffffffffffffffffffffffffffff021916908373ffffffffffffffffffffffffffffffffffffffff1602179055505f805f6101000a81548160ff0219169083151502179055506605543df729c00060018190555061159b806100c35f395ff3fe6080604052600436106100e0575f3560e01c80637b1a49091161007e578063a6f9dae111610058578063a6f9dae114610247578063b2a834531461026f578063ddca3f4314610297578063ecbdbb32146102c1576100e7565b80637b1a4909146101df5780638456cb59146102075780638da5cb5b1461021d576100e7565b80633f4ba83a116100ba5780633f4ba83a1461015b57806352180208146101715780635c975abb1461018d5780636a1db1bf146101b7576100e7565b806312424e3f146100eb5780632b603c71146100f55780633cb747bf14610131576100e7565b366100e757005b5f80fd5b6100f36102eb565b005b348015610100575f80fd5b5061011b60048036038101906101169190610ddb565b610420565b6040516101289190610e1e565b60405180910390f35b34801561013c575f80fd5b50610145610435565b6040516101529190610e57565b60405180910390f35b348015610166575f80fd5b5061016f61045a565b005b61018b60048036038101906101869190610e9a565b61052f565b005b348015610198575f80fd5b506101a16107c4565b6040516101ae9190610ef2565b60405180910390f35b3480156101c2575f80fd5b506101dd60048036038101906101d89190610f0b565b6107d4565b005b3480156101ea575f80fd5b5061020560048036038101906102009190610e9a565b61086d565b005b348015610212575f80fd5b5061021b6109f5565b005b348015610228575f80fd5b50610231610acb565b60405161023e9190610e57565b60405180910390f35b348015610252575f80fd5b5061026d60048036038101906102689190610ddb565b610af0565b005b34801561027a575f80fd5b5061029560048036038101906102909190610ddb565b610c30565b005b3480156102a2575f80fd5b506102ab610d70565b6040516102b89190610e1e565b60405180910390f35b3480156102cc575f80fd5b506102d5610d76565b6040516102e29190610e1e565b60405180910390f35b5f8054906101000a900460ff1615610338576040517f08c379a000000000000000000000000000000000000000000000000000000000815260040161032f90610fb6565b60405180910390fd5b60015434101561037d576040517f08c379a000000000000000000000000000000000000000000000000000000000815260040161037490611044565b60405180910390fd5b3460045f3373ffffffffffffffffffffffffffffffffffffffff1673ffffffffffffffffffffffffffffffffffffffff1681526020019081526020015f205f8282546103c9919061108f565b925050819055503373ffffffffffffffffffffffffffffffffffffffff167f1e4109814b4fb1210f81ef6540a9bf7e5834ff79536859d16d6398f0e417c44f346040516104169190610e1e565b60405180910390a2565b6004602052805f5260405f205f915090505481565b60035f9054906101000a900473ffffffffffffffffffffffffffffffffffffffff1681565b60025f9054906101000a900473ffffffffffffffffffffffffffffffffffffffff1673ffffffffffffffffffffffffffffffffffffffff163373ffffffffffffffffffffffffffffffffffffffff16146104e9576040517f08c379a00000000000000000000000000000000000000000000000000000000081526004016104e090611132565b60405180910390fd5b5f805f6101000a81548160ff0219169083151502179055507fa45f47fdea8a1efdd9029a5691c7f759c32b7c698632b563573e155625d1693360405160405180910390a1565b60035f9054906101000a900473ffffffffffffffffffffffffffffffffffffffff1673ffffffffffffffffffffffffffffffffffffffff163373ffffffffffffffffffffffffffffffffffffffff16146105be576040517f08c379a00000000000000000000000000000000000000000000000000000000081526004016105b5906111c0565b60405180910390fd5b8060045f8473ffffffffffffffffffffffffffffffffffffffff1673ffffffffffffffffffffffffffffffffffffffff1681526020019081526020015f2054101561063e576040517f08c379a00000000000000000000000000000000000000000000000000000000081526004016106359061124e565b60405180910390fd5b6001548111610682576040517f08c379a0000000000000000000000000000000000000000000000000000000008152600401610679906112dc565b60405180910390fd5b8060045f8473ffffffffffffffffffffffffffffffffffffffff1673ffffffffffffffffffffffffffffffffffffffff1681526020019081526020015f205f8282546106ce91906112fa565b9250508190555060035f9054906101000a900473ffffffffffffffffffffffffffffffffffffffff1673ffffffffffffffffffffffffffffffffffffffff166108fc8290811502906040515f60405180830381858888f19350505050158015610739573d5f803e3d5ffd5b5060035f9054906101000a900473ffffffffffffffffffffffffffffffffffffffff1673ffffffffffffffffffffffffffffffffffffffff168273ffffffffffffffffffffffffffffffffffffffff167f9bbd814328e65758b36306475bbc61410445dd088c88681ed74c940dc604db1a836040516107b89190610e1e565b60405180910390a35050565b5f8054906101000a900460ff1681565b60025f9054906101000a900473ffffffffffffffffffffffffffffffffffffffff1673ffffffffffffffffffffffffffffffffffffffff163373ffffffffffffffffffffffffffffffffffffffff1614610863576040517f08c379a000000000000000000000000000000000000000000000000000000000815260040161085a90611132565b60405180910390fd5b8060018190555050565b60025f9054906101000a900473ffffffffffffffffffffffffffffffffffffffff1673ffffffffffffffffffffffffffffffffffffffff163373ffffffffffffffffffffffffffffffffffffffff16146108fc576040517f08c379a00000000000000000000000000000000000000000000000000000000081526004016108f390611132565b60405180910390fd5b5f73ffffffffffffffffffffffffffffffffffffffff168273ffffffffffffffffffffffffffffffffffffffff160361096a576040517f08c379a00000000000000000000000000000000000000000000000000000000081526004016109619061139d565b60405180910390fd5b478111156109ad576040517f08c379a00000000000000000000000000000000000000000000000000000000081526004016109a49061142b565b60405180910390fd5b8173ffffffffffffffffffffffffffffffffffffffff166108fc8290811502906040515f60405180830381858888f193505050501580156109f0573d5f803e3d5ffd5b505050565b60025f9054906101000a900473ffffffffffffffffffffffffffffffffffffffff1673ffffffffffffffffffffffffffffffffffffffff163373ffffffffffffffffffffffffffffffffffffffff1614610a84576040517f08c379a0000000000000000000000000000000000000000000000000000000008152600401610a7b90611132565b60405180910390fd5b60015f806101000a81548160ff0219169083151502179055507f9e87fac88ff661f02d44f95383c817fece4bce600a3dab7a54406878b965e75260405160405180910390a1565b60025f9054906101000a900473ffffffffffffffffffffffffffffffffffffffff1681565b60025f9054906101000a900473ffffffffffffffffffffffffffffffffffffffff1673ffffffffffffffffffffffffffffffffffffffff163373ffffffffffffffffffffffffffffffffffffffff1614610b7f576040517f08c379a0000000000000000000000000000000000000000000000000000000008152600401610b7690611132565b60405180910390fd5b5f73ffffffffffffffffffffffffffffffffffffffff168173ffffffffffffffffffffffffffffffffffffffff1603610bed576040517f08c379a0000000000000000000000000000000000000000000000000000000008152600401610be4906114b9565b60405180910390fd5b8060025f6101000a81548173ffffffffffffffffffffffffffffffffffffffff021916908373ffffffffffffffffffffffffffffffffffffffff16021790555050565b60025f9054906101000a900473ffffffffffffffffffffffffffffffffffffffff1673ffffffffffffffffffffffffffffffffffffffff163373ffffffffffffffffffffffffffffffffffffffff1614610cbf576040517f08c379a0000000000000000000000000000000000000000000000000000000008152600401610cb690611132565b60405180910390fd5b5f73ffffffffffffffffffffffffffffffffffffffff168173ffffffffffffffffffffffffffffffffffffffff1603610d2d576040517f08c379a0000000000000000000000000000000000000000000000000000000008152600401610d2490611547565b60405180910390fd5b8060035f6101000a81548173ffffffffffffffffffffffffffffffffffffffff021916908373ffffffffffffffffffffffffffffffffffffffff16021790555050565b60015481565b5f47905090565b5f80fd5b5f73ffffffffffffffffffffffffffffffffffffffff82169050919050565b5f610daa82610d81565b9050919050565b610dba81610da0565b8114610dc4575f80fd5b50565b5f81359050610dd581610db1565b92915050565b5f60208284031215610df057610def610d7d565b5b5f610dfd84828501610dc7565b91505092915050565b5f819050919050565b610e1881610e06565b82525050565b5f602082019050610e315f830184610e0f565b92915050565b5f610e4182610d81565b9050919050565b610e5181610e37565b82525050565b5f602082019050610e6a5f830184610e48565b92915050565b610e7981610e06565b8114610e83575f80fd5b50565b5f81359050610e9481610e70565b92915050565b5f8060408385031215610eb057610eaf610d7d565b5b5f610ebd85828601610dc7565b9250506020610ece85828601610e86565b9150509250929050565b5f8115159050919050565b610eec81610ed8565b82525050565b5f602082019050610f055f830184610ee3565b92915050565b5f60208284031215610f2057610f1f610d7d565b5b5f610f2d84828501610e86565b91505092915050565b5f82825260208201905092915050565b7f536e617463685665676769657342616e6b3a20436f6e747261637420697320705f8201527f6175736564000000000000000000000000000000000000000000000000000000602082015250565b5f610fa0602583610f36565b9150610fab82610f46565b604082019050919050565b5f6020820190508181035f830152610fcd81610f94565b9050919050565b7f536e617463685665676769657342616e6b3a2054686520617070726f76616c205f8201527f76616c7565206d75737420626520686967686572000000000000000000000000602082015250565b5f61102e603483610f36565b915061103982610fd4565b604082019050919050565b5f6020820190508181035f83015261105b81611022565b9050919050565b7f4e487b71000000000000000000000000000000000000000000000000000000005f52601160045260245ffd5b5f61109982610e06565b91506110a483610e06565b92508282019050808211156110bc576110bb611062565b5b92915050565b7f536e617463685665676769657342616e6b3a2043616c6c6572206973206e6f745f8201527f20746865206f776e657200000000000000000000000000000000000000000000602082015250565b5f61111c602a83610f36565b9150611127826110c2565b604082019050919050565b5f6020820190508181035f83015261114981611110565b9050919050565b7f536e617463685665676769657342616e6b3a2043616c6c6572206973206e6f745f8201527f20746865206d657373656e676572000000000000000000000000000000000000602082015250565b5f6111aa602e83610f36565b91506111b582611150565b604082019050919050565b5f6020820190508181035f8301526111d78161119e565b9050919050565b7f536e617463685665676769657342616e6b3a20496e73756666696369656e74205f8201527f616c6c6f77616e63650000000000000000000000000000000000000000000000602082015250565b5f611238602983610f36565b9150611243826111de565b604082019050919050565b5f6020820190508181035f8301526112658161122c565b9050919050565b7f536e617463685665676769657342616e6b3a2054616b6520616d6f756e74206d5f8201527f7573742062652067726561746572000000000000000000000000000000000000602082015250565b5f6112c6602e83610f36565b91506112d18261126c565b604082019050919050565b5f6020820190508181035f8301526112f3816112ba565b9050919050565b5f61130482610e06565b915061130f83610e06565b925082820390508181111561132757611326611062565b5b92915050565b7f536e617463685665676769657342616e6b3a205472616e7366657220746f20745f8201527f6865207a65726f20616464726573730000000000000000000000000000000000602082015250565b5f611387602f83610f36565b91506113928261132d565b604082019050919050565b5f6020820190508181035f8301526113b48161137b565b9050919050565b7f536e617463685665676769657342616e6b3a20496e73756666696369656e74205f8201527f636f6e74726163742062616c616e636500000000000000000000000000000000602082015250565b5f611415603083610f36565b9150611420826113bb565b604082019050919050565b5f6020820190508181035f83015261144281611409565b9050919050565b7f536e617463685665676769657342616e6b3a204e6577206f776e6572206973205f8201527f746865207a65726f206164647265737300000000000000000000000000000000602082015250565b5f6114a3603083610f36565b91506114ae82611449565b604082019050919050565b5f6020820190508181035f8301526114d081611497565b9050919050565b7f536e617463685665676769657342616e6b3a204e6577206d657373656e6765725f8201527f20697320746865207a65726f2061646472657373000000000000000000000000602082015250565b5f611531603483610f36565b915061153c826114d7565b604082019050919050565b5f6020820190508181035f83015261155e81611525565b905091905056fea2646970667358221220759424d0199db2cbec3db340e473010af866e5a84d3e3dc0f443e8f677af608864736f6c63430008150033",
  "immutableReferences": {},
  "source": "// SPDX-License-Identifier: MIT\r\npragma solidity ^0.8.20;\r\n\r\n/// @title SnatchVeggiesBank\r\n/// @notice Contratos de SnatchVeggiesBank\r\n\r\ncontract SnatchVeggiesBank {\r\n  /*************\r\n   * Variables *\r\n   *************/\r\n\r\n  bool public paused;\r\n  uint256 public fee;\r\n\r\n  address payable public owner;\r\n  address payable public messenger;\r\n\r\n  mapping(address => uint256) public allowances;\r\n\r\n  /**********\r\n   * Events *\r\n   **********/\r\n\r\n  event Paused();\r\n  event Unpaused();\r\n\r\n  event Approval(address indexed approver, uint256 amount);\r\n  event Take(address indexed from, address indexed to, uint256 amount);\r\n\r\n  /***************\r\n   * Constructor *\r\n   ***************/\r\n\r\n  constructor() {\r\n    owner = payable(msg.sender);\r\n    messenger = payable(msg.sender);\r\n    paused = false;\r\n    fee = 0.0015 ether;\r\n  }\r\n\r\n  /**********************\r\n   * Function Modifiers *\r\n   **********************/\r\n\r\n  modifier onlyOwner() {\r\n    require(msg.sender == owner, \"SnatchVeggiesBank: Caller is not the owner\");\r\n    _;\r\n  }\r\n\r\n  modifier whenNotPaused() {\r\n    require(!paused, \"SnatchVeggiesBank: Contract is paused\");\r\n    _;\r\n  }\r\n\r\n  modifier onlyMessenger() {\r\n    require(msg.sender == messenger, \"SnatchVeggiesBank: Caller is not the messenger\");\r\n    _;\r\n  }\r\n\r\n  /*******************\r\n   * Utils Functions *\r\n   *******************/\r\n\r\n  receive() external payable {}\r\n\r\n  /// @notice Pauses the contract.\r\n\r\n  function pause() external onlyOwner {\r\n    paused = true;\r\n    emit Paused();\r\n  }\r\n\r\n  /// @notice Unpauses the contract.\r\n\r\n  function unpause() external onlyOwner {\r\n    paused = false;\r\n    emit Unpaused();\r\n  }\r\n\r\n  /**********************\r\n   * Settings Functions *\r\n   **********************/\r\n\r\n  /// @notice Changes the contract owner.\r\n  /// @param _fee Fee amount.\r\n\r\n  function changeFee(uint256 _fee) external onlyOwner {\r\n    fee = _fee;\r\n  }\r\n\r\n  /// @notice Changes the contract owner.\r\n  /// @param _newOwner Address of the new owner.\r\n\r\n  function changeOwner(address _newOwner) external onlyOwner {\r\n    require(_newOwner != address(0), \"SnatchVeggiesBank: New owner is the zero address\");\r\n    owner = payable(_newOwner);\r\n  }\r\n\r\n  /// @notice Changes the contract messenger.\r\n  /// @param _newMessenger Address of the new messenger.\r\n\r\n  function changeMessenger(address _newMessenger) external onlyOwner {\r\n    require(_newMessenger != address(0), \"SnatchVeggiesBank: New messenger is the zero address\");\r\n    messenger = payable(_newMessenger);\r\n  }\r\n\r\n  /**********************\r\n   * Handlers Functions *\r\n   **********************/\r\n\r\n  /// @notice Returns the ETH balance of the contract.\r\n  /// @return The ETH balance of the contract.\r\n\r\n  function balanceETH() external view returns (uint256) {\r\n    return address(this).balance;\r\n  }\r\n\r\n  /// @notice Transfers ETH from the contract to a specified address.\r\n  /// @param _to Address to receive the ETH.\r\n  /// @param _amount Amount of ETH to transfer.\r\n\r\n  function transferETH(address _to, uint256 _amount) external onlyOwner {\r\n    require(_to != address(0), \"SnatchVeggiesBank: Transfer to the zero address\");\r\n    require(_amount <= address(this).balance, \"SnatchVeggiesBank: Insufficient contract balance\");\r\n    payable(_to).transfer(_amount);\r\n  }\r\n\r\n  /**********************\r\n   * External Functions *\r\n   **********************/\r\n\r\n  /// @notice Approves a certain amount of ETH for the messenger.\r\n\r\n  function approve() external payable whenNotPaused {\r\n    require(msg.value >= fee, \"SnatchVeggiesBank: The approval value must be higher\");\r\n    allowances[msg.sender] += msg.value;\r\n    emit Approval(msg.sender, msg.value);\r\n  }\r\n\r\n  /// @notice Executes a sale transaction by transferring ETH to the messenger.\r\n  /// @param _from Address of the seller.\r\n  /// @param _amount Amount of ETH to transfer.\r\n\r\n  function take(address _from, uint256 _amount) external payable onlyMessenger {\r\n    require(allowances[_from] >= _amount, \"SnatchVeggiesBank: Insufficient allowance\");\r\n    require(_amount > fee, \"SnatchVeggiesBank: Take amount must be greater\");\r\n\r\n    allowances[_from] -= _amount;\r\n    payable(messenger).transfer(_amount);\r\n\r\n    emit Take(_from, messenger, _amount);\r\n  }\r\n}\r\n",
  "sourcePath": "E:\\games\\snatch-veggies\\smartcontracts\\contracts\\SnatchVeggiesBank.sol",
  "compiler": {
    "name": "solc",
    "version": "0.8.21+commit.d9974bed.Emscripten.clang"
  },
  "schemaVersion": "3.4.16",
  "updatedAt": "2025-01-24T18:42:47.246Z",
  "devdoc": {
    "kind": "dev",
    "methods": {
      "balanceETH()": {
        "returns": {
          "_0": "The ETH balance of the contract."
        }
      },
      "changeFee(uint256)": {
        "params": {
          "_fee": "Fee amount."
        }
      },
      "changeMessenger(address)": {
        "params": {
          "_newMessenger": "Address of the new messenger."
        }
      },
      "changeOwner(address)": {
        "params": {
          "_newOwner": "Address of the new owner."
        }
      },
      "take(address,uint256)": {
        "params": {
          "_amount": "Amount of ETH to transfer.",
          "_from": "Address of the seller."
        }
      },
      "transferETH(address,uint256)": {
        "params": {
          "_amount": "Amount of ETH to transfer.",
          "_to": "Address to receive the ETH."
        }
      }
    },
    "title": "SnatchVeggiesBank",
    "version": 1
  },
  "userdoc": {
    "kind": "user",
    "methods": {
      "approve()": {
        "notice": "Approves a certain amount of ETH for the messenger."
      },
      "balanceETH()": {
        "notice": "Returns the ETH balance of the contract."
      },
      "changeFee(uint256)": {
        "notice": "Changes the contract owner."
      },
      "changeMessenger(address)": {
        "notice": "Changes the contract messenger."
      },
      "changeOwner(address)": {
        "notice": "Changes the contract owner."
      },
      "pause()": {
        "notice": "Pauses the contract."
      },
      "take(address,uint256)": {
        "notice": "Executes a sale transaction by transferring ETH to the messenger."
      },
      "transferETH(address,uint256)": {
        "notice": "Transfers ETH from the contract to a specified address."
      },
      "unpause()": {
        "notice": "Unpauses the contract."
      }
    },
    "notice": "Contratos de SnatchVeggiesBank",
    "version": 1
  }
}