{
  "contractName": "SnatchVeggiesLand",
  "abi": [
    {
      "inputs": [
        {
          "internalType": "string",
          "name": "_baseUri",
          "type": "string"
        }
      ],
      "stateMutability": "nonpayable",
      "type": "constructor"
    },
    {
      "inputs": [],
      "name": "ERC721EnumerableForbiddenBatchMint",
      "type": "error"
    },
    {
      "inputs": [
        {
          "internalType": "address",
          "name": "sender",
          "type": "address"
        },
        {
          "internalType": "uint256",
          "name": "tokenId",
          "type": "uint256"
        },
        {
          "internalType": "address",
          "name": "owner",
          "type": "address"
        }
      ],
      "name": "ERC721IncorrectOwner",
      "type": "error"
    },
    {
      "inputs": [
        {
          "internalType": "address",
          "name": "operator",
          "type": "address"
        },
        {
          "internalType": "uint256",
          "name": "tokenId",
          "type": "uint256"
        }
      ],
      "name": "ERC721InsufficientApproval",
      "type": "error"
    },
    {
      "inputs": [
        {
          "internalType": "address",
          "name": "approver",
          "type": "address"
        }
      ],
      "name": "ERC721InvalidApprover",
      "type": "error"
    },
    {
      "inputs": [
        {
          "internalType": "address",
          "name": "operator",
          "type": "address"
        }
      ],
      "name": "ERC721InvalidOperator",
      "type": "error"
    },
    {
      "inputs": [
        {
          "internalType": "address",
          "name": "owner",
          "type": "address"
        }
      ],
      "name": "ERC721InvalidOwner",
      "type": "error"
    },
    {
      "inputs": [
        {
          "internalType": "address",
          "name": "receiver",
          "type": "address"
        }
      ],
      "name": "ERC721InvalidReceiver",
      "type": "error"
    },
    {
      "inputs": [
        {
          "internalType": "address",
          "name": "sender",
          "type": "address"
        }
      ],
      "name": "ERC721InvalidSender",
      "type": "error"
    },
    {
      "inputs": [
        {
          "internalType": "uint256",
          "name": "tokenId",
          "type": "uint256"
        }
      ],
      "name": "ERC721NonexistentToken",
      "type": "error"
    },
    {
      "inputs": [
        {
          "internalType": "address",
          "name": "owner",
          "type": "address"
        },
        {
          "internalType": "uint256",
          "name": "index",
          "type": "uint256"
        }
      ],
      "name": "ERC721OutOfBoundsIndex",
      "type": "error"
    },
    {
      "inputs": [
        {
          "internalType": "address",
          "name": "owner",
          "type": "address"
        }
      ],
      "name": "OwnableInvalidOwner",
      "type": "error"
    },
    {
      "inputs": [
        {
          "internalType": "address",
          "name": "account",
          "type": "address"
        }
      ],
      "name": "OwnableUnauthorizedAccount",
      "type": "error"
    },
    {
      "inputs": [
        {
          "internalType": "uint256",
          "name": "value",
          "type": "uint256"
        }
      ],
      "name": "ValueNotEnough",
      "type": "error"
    },
    {
      "anonymous": false,
      "inputs": [
        {
          "indexed": true,
          "internalType": "address",
          "name": "owner",
          "type": "address"
        },
        {
          "indexed": true,
          "internalType": "address",
          "name": "approved",
          "type": "address"
        },
        {
          "indexed": true,
          "internalType": "uint256",
          "name": "tokenId",
          "type": "uint256"
        }
      ],
      "name": "Approval",
      "type": "event"
    },
    {
      "anonymous": false,
      "inputs": [
        {
          "indexed": true,
          "internalType": "address",
          "name": "owner",
          "type": "address"
        },
        {
          "indexed": true,
          "internalType": "address",
          "name": "operator",
          "type": "address"
        },
        {
          "indexed": false,
          "internalType": "bool",
          "name": "approved",
          "type": "bool"
        }
      ],
      "name": "ApprovalForAll",
      "type": "event"
    },
    {
      "anonymous": false,
      "inputs": [
        {
          "indexed": true,
          "internalType": "address",
          "name": "buyer",
          "type": "address"
        },
        {
          "indexed": false,
          "internalType": "uint256",
          "name": "tokenId",
          "type": "uint256"
        }
      ],
      "name": "MintNft",
      "type": "event"
    },
    {
      "anonymous": false,
      "inputs": [
        {
          "indexed": true,
          "internalType": "address",
          "name": "previousOwner",
          "type": "address"
        },
        {
          "indexed": true,
          "internalType": "address",
          "name": "newOwner",
          "type": "address"
        }
      ],
      "name": "OwnershipTransferred",
      "type": "event"
    },
    {
      "anonymous": false,
      "inputs": [
        {
          "indexed": true,
          "internalType": "address",
          "name": "from",
          "type": "address"
        },
        {
          "indexed": true,
          "internalType": "address",
          "name": "to",
          "type": "address"
        },
        {
          "indexed": true,
          "internalType": "uint256",
          "name": "tokenId",
          "type": "uint256"
        }
      ],
      "name": "Transfer",
      "type": "event"
    },
    {
      "inputs": [
        {
          "internalType": "address",
          "name": "to",
          "type": "address"
        },
        {
          "internalType": "uint256",
          "name": "tokenId",
          "type": "uint256"
        }
      ],
      "name": "approve",
      "outputs": [],
      "stateMutability": "nonpayable",
      "type": "function"
    },
    {
      "inputs": [
        {
          "internalType": "address",
          "name": "owner",
          "type": "address"
        }
      ],
      "name": "balanceOf",
      "outputs": [
        {
          "internalType": "uint256",
          "name": "",
          "type": "uint256"
        }
      ],
      "stateMutability": "view",
      "type": "function"
    },
    {
      "inputs": [
        {
          "internalType": "uint256",
          "name": "tokenId",
          "type": "uint256"
        }
      ],
      "name": "getApproved",
      "outputs": [
        {
          "internalType": "address",
          "name": "",
          "type": "address"
        }
      ],
      "stateMutability": "view",
      "type": "function"
    },
    {
      "inputs": [
        {
          "internalType": "address",
          "name": "owner",
          "type": "address"
        },
        {
          "internalType": "address",
          "name": "operator",
          "type": "address"
        }
      ],
      "name": "isApprovedForAll",
      "outputs": [
        {
          "internalType": "bool",
          "name": "",
          "type": "bool"
        }
      ],
      "stateMutability": "view",
      "type": "function"
    },
    {
      "inputs": [],
      "name": "name",
      "outputs": [
        {
          "internalType": "string",
          "name": "",
          "type": "string"
        }
      ],
      "stateMutability": "view",
      "type": "function"
    },
    {
      "inputs": [],
      "name": "owner",
      "outputs": [
        {
          "internalType": "address",
          "name": "",
          "type": "address"
        }
      ],
      "stateMutability": "view",
      "type": "function"
    },
    {
      "inputs": [
        {
          "internalType": "uint256",
          "name": "tokenId",
          "type": "uint256"
        }
      ],
      "name": "ownerOf",
      "outputs": [
        {
          "internalType": "address",
          "name": "",
          "type": "address"
        }
      ],
      "stateMutability": "view",
      "type": "function"
    },
    {
      "inputs": [],
      "name": "price",
      "outputs": [
        {
          "internalType": "uint256",
          "name": "",
          "type": "uint256"
        }
      ],
      "stateMutability": "view",
      "type": "function"
    },
    {
      "inputs": [],
      "name": "renounceOwnership",
      "outputs": [],
      "stateMutability": "nonpayable",
      "type": "function"
    },
    {
      "inputs": [
        {
          "internalType": "address",
          "name": "from",
          "type": "address"
        },
        {
          "internalType": "address",
          "name": "to",
          "type": "address"
        },
        {
          "internalType": "uint256",
          "name": "tokenId",
          "type": "uint256"
        }
      ],
      "name": "safeTransferFrom",
      "outputs": [],
      "stateMutability": "nonpayable",
      "type": "function"
    },
    {
      "inputs": [
        {
          "internalType": "address",
          "name": "from",
          "type": "address"
        },
        {
          "internalType": "address",
          "name": "to",
          "type": "address"
        },
        {
          "internalType": "uint256",
          "name": "tokenId",
          "type": "uint256"
        },
        {
          "internalType": "bytes",
          "name": "data",
          "type": "bytes"
        }
      ],
      "name": "safeTransferFrom",
      "outputs": [],
      "stateMutability": "nonpayable",
      "type": "function"
    },
    {
      "inputs": [
        {
          "internalType": "address",
          "name": "operator",
          "type": "address"
        },
        {
          "internalType": "bool",
          "name": "approved",
          "type": "bool"
        }
      ],
      "name": "setApprovalForAll",
      "outputs": [],
      "stateMutability": "nonpayable",
      "type": "function"
    },
    {
      "inputs": [
        {
          "internalType": "bytes4",
          "name": "interfaceId",
          "type": "bytes4"
        }
      ],
      "name": "supportsInterface",
      "outputs": [
        {
          "internalType": "bool",
          "name": "",
          "type": "bool"
        }
      ],
      "stateMutability": "view",
      "type": "function"
    },
    {
      "inputs": [],
      "name": "symbol",
      "outputs": [
        {
          "internalType": "string",
          "name": "",
          "type": "string"
        }
      ],
      "stateMutability": "view",
      "type": "function"
    },
    {
      "inputs": [
        {
          "internalType": "uint256",
          "name": "index",
          "type": "uint256"
        }
      ],
      "name": "tokenByIndex",
      "outputs": [
        {
          "internalType": "uint256",
          "name": "",
          "type": "uint256"
        }
      ],
      "stateMutability": "view",
      "type": "function"
    },
    {
      "inputs": [
        {
          "internalType": "address",
          "name": "owner",
          "type": "address"
        },
        {
          "internalType": "uint256",
          "name": "index",
          "type": "uint256"
        }
      ],
      "name": "tokenOfOwnerByIndex",
      "outputs": [
        {
          "internalType": "uint256",
          "name": "",
          "type": "uint256"
        }
      ],
      "stateMutability": "view",
      "type": "function"
    },
    {
      "inputs": [
        {
          "internalType": "uint256",
          "name": "tokenId",
          "type": "uint256"
        }
      ],
      "name": "tokenURI",
      "outputs": [
        {
          "internalType": "string",
          "name": "",
          "type": "string"
        }
      ],
      "stateMutability": "view",
      "type": "function"
    },
    {
      "inputs": [],
      "name": "totalSupply",
      "outputs": [
        {
          "internalType": "uint256",
          "name": "",
          "type": "uint256"
        }
      ],
      "stateMutability": "view",
      "type": "function"
    },
    {
      "inputs": [
        {
          "internalType": "address",
          "name": "from",
          "type": "address"
        },
        {
          "internalType": "address",
          "name": "to",
          "type": "address"
        },
        {
          "internalType": "uint256",
          "name": "tokenId",
          "type": "uint256"
        }
      ],
      "name": "transferFrom",
      "outputs": [],
      "stateMutability": "nonpayable",
      "type": "function"
    },
    {
      "inputs": [
        {
          "internalType": "address",
          "name": "newOwner",
          "type": "address"
        }
      ],
      "name": "transferOwnership",
      "outputs": [],
      "stateMutability": "nonpayable",
      "type": "function"
    },
    {
      "inputs": [],
      "name": "mint",
      "outputs": [],
      "stateMutability": "payable",
      "type": "function"
    },
    {
      "inputs": [
        {
          "internalType": "address",
          "name": "owner",
          "type": "address"
        }
      ],
      "name": "listTokenIdsByOwner",
      "outputs": [
        {
          "internalType": "uint256[]",
          "name": "",
          "type": "uint256[]"
        }
      ],
      "stateMutability": "view",
      "type": "function"
    },
    {
      "inputs": [],
      "name": "listAllTokenIds",
      "outputs": [
        {
          "internalType": "uint256[]",
          "name": "",
          "type": "uint256[]"
        }
      ],
      "stateMutability": "view",
      "type": "function"
    },
    {
      "inputs": [
        {
          "internalType": "uint256",
          "name": "_price",
          "type": "uint256"
        }
      ],
      "name": "setPrice",
      "outputs": [],
      "stateMutability": "nonpayable",
      "type": "function"
    },
    {
      "inputs": [
        {
          "internalType": "string",
          "name": "_baseUri",
          "type": "string"
        }
      ],
      "name": "setBaseURI",
      "outputs": [],
      "stateMutability": "nonpayable",
      "type": "function"
    }
  ],
  "bytecode": "0x60806040525f600d5534801562000014575f80fd5b50604051620037b9380380620037b983398181016040528101906200003a9190620003c8565b6200004a6200017960201b60201c565b6040518060400160405280601381526020017f536e617463682056656767696573204c616e64000000000000000000000000008152506040518060400160405280600681526020017f53564c414e440000000000000000000000000000000000000000000000000000815250815f9081620000c691906200064e565b508060019081620000d891906200064e565b5050505f73ffffffffffffffffffffffffffffffffffffffff168173ffffffffffffffffffffffffffffffffffffffff16036200014e575f6040517f1e4fbdf700000000000000000000000000000000000000000000000000000000815260040162000145919062000775565b60405180910390fd5b6200015f816200018060201b60201c565b5080600c90816200017191906200064e565b505062000790565b5f33905090565b5f600a5f9054906101000a900473ffffffffffffffffffffffffffffffffffffffff16905081600a5f6101000a81548173ffffffffffffffffffffffffffffffffffffffff021916908373ffffffffffffffffffffffffffffffffffffffff1602179055508173ffffffffffffffffffffffffffffffffffffffff168173ffffffffffffffffffffffffffffffffffffffff167f8be0079c531659141344cd1fd0a4f28419497f9722a3daafe3b4186f6b6457e060405160405180910390a35050565b5f604051905090565b5f80fd5b5f80fd5b5f80fd5b5f80fd5b5f601f19601f8301169050919050565b7f4e487b71000000000000000000000000000000000000000000000000000000005f52604160045260245ffd5b620002a4826200025c565b810181811067ffffffffffffffff82111715620002c657620002c56200026c565b5b80604052505050565b5f620002da62000243565b9050620002e8828262000299565b919050565b5f67ffffffffffffffff8211156200030a57620003096200026c565b5b62000315826200025c565b9050602081019050919050565b5f5b838110156200034157808201518184015260208101905062000324565b5f8484015250505050565b5f620003626200035c84620002ed565b620002cf565b90508281526020810184848401111562000381576200038062000258565b5b6200038e84828562000322565b509392505050565b5f82601f830112620003ad57620003ac62000254565b5b8151620003bf8482602086016200034c565b91505092915050565b5f60208284031215620003e057620003df6200024c565b5b5f82015167ffffffffffffffff8111156200040057620003ff62000250565b5b6200040e8482850162000396565b91505092915050565b5f81519050919050565b7f4e487b71000000000000000000000000000000000000000000000000000000005f52602260045260245ffd5b5f60028204905060018216806200046657607f821691505b6020821081036200047c576200047b62000421565b5b50919050565b5f819050815f5260205f209050919050565b5f6020601f8301049050919050565b5f82821b905092915050565b5f60088302620004e07fffffffffffffffffffffffffffffffffffffffffffffffffffffffffffffffff82620004a3565b620004ec8683620004a3565b95508019841693508086168417925050509392505050565b5f819050919050565b5f819050919050565b5f62000536620005306200052a8462000504565b6200050d565b62000504565b9050919050565b5f819050919050565b620005518362000516565b6200056962000560826200053d565b848454620004af565b825550505050565b5f90565b6200057f62000571565b6200058c81848462000546565b505050565b5b81811015620005b357620005a75f8262000575565b60018101905062000592565b5050565b601f8211156200060257620005cc8162000482565b620005d78462000494565b81016020851015620005e7578190505b620005ff620005f68562000494565b83018262000591565b50505b505050565b5f82821c905092915050565b5f620006245f198460080262000607565b1980831691505092915050565b5f6200063e838362000613565b9150826002028217905092915050565b620006598262000417565b67ffffffffffffffff8111156200067557620006746200026c565b5b6200068182546200044e565b6200068e828285620005b7565b5f60209050601f831160018114620006c4575f8415620006af578287015190505b620006bb858262000631565b8655506200072a565b601f198416620006d48662000482565b5f5b82811015620006fd57848901518255600182019150602085019450602081019050620006d6565b868310156200071d578489015162000719601f89168262000613565b8355505b6001600288020188555050505b505050505050565b5f73ffffffffffffffffffffffffffffffffffffffff82169050919050565b5f6200075d8262000732565b9050919050565b6200076f8162000751565b82525050565b5f6020820190506200078a5f83018462000764565b92915050565b61301b806200079e5f395ff3fe608060405260043610610165575f3560e01c80636352211e116100d057806399ee9c1f11610089578063b88d4fde11610063578063b88d4fde14610519578063c87b56dd14610541578063e985e9c51461057d578063f2fde38b146105b957610165565b806399ee9c1f1461048b578063a035b1fe146104c7578063a22cb465146104f157610165565b80636352211e1461038157806370a08231146103bd578063715018a6146103f95780638da5cb5b1461040f57806391b7f5ed1461043957806395d89b411461046157610165565b806323b872dd1161012257806323b872dd146102675780632f745c591461028f57806342842e0e146102cb57806347a465c8146102f35780634f6ccce71461031d57806355f804b31461035957610165565b806301ffc9a71461016957806306fdde03146101a5578063081812fc146101cf578063095ea7b31461020b5780631249c58b1461023357806318160ddd1461023d575b5f80fd5b348015610174575f80fd5b5061018f600480360381019061018a9190612383565b6105e1565b60405161019c91906123c8565b60405180910390f35b3480156101b0575f80fd5b506101b961065a565b6040516101c6919061246b565b60405180910390f35b3480156101da575f80fd5b506101f560048036038101906101f091906124be565b6106e9565b6040516102029190612528565b60405180910390f35b348015610216575f80fd5b50610231600480360381019061022c919061256b565b610704565b005b61023b61071a565b005b348015610248575f80fd5b5061025161082c565b60405161025e91906125b8565b60405180910390f35b348015610272575f80fd5b5061028d600480360381019061028891906125d1565b610838565b005b34801561029a575f80fd5b506102b560048036038101906102b0919061256b565b610937565b6040516102c291906125b8565b60405180910390f35b3480156102d6575f80fd5b506102f160048036038101906102ec91906125d1565b6109db565b005b3480156102fe575f80fd5b506103076109fa565b60405161031491906126d8565b60405180910390f35b348015610328575f80fd5b50610343600480360381019061033e91906124be565b610aa1565b60405161035091906125b8565b60405180910390f35b348015610364575f80fd5b5061037f600480360381019061037a9190612824565b610b13565b005b34801561038c575f80fd5b506103a760048036038101906103a291906124be565b610b2e565b6040516103b49190612528565b60405180910390f35b3480156103c8575f80fd5b506103e360048036038101906103de919061286b565b610b3f565b6040516103f091906125b8565b60405180910390f35b348015610404575f80fd5b5061040d610bf5565b005b34801561041a575f80fd5b50610423610c08565b6040516104309190612528565b60405180910390f35b348015610444575f80fd5b5061045f600480360381019061045a91906124be565b610c30565b005b34801561046c575f80fd5b50610475610c42565b604051610482919061246b565b60405180910390f35b348015610496575f80fd5b506104b160048036038101906104ac919061286b565b610cd2565b6040516104be91906126d8565b60405180910390f35b3480156104d2575f80fd5b506104db610d7d565b6040516104e891906125b8565b60405180910390f35b3480156104fc575f80fd5b50610517600480360381019061051291906128c0565b610d83565b005b348015610524575f80fd5b5061053f600480360381019061053a919061299c565b610d99565b005b34801561054c575f80fd5b50610567600480360381019061056291906124be565b610db6565b604051610574919061246b565b60405180910390f35b348015610588575f80fd5b506105a3600480360381019061059e9190612a1c565b610e1c565b6040516105b091906123c8565b60405180910390f35b3480156105c4575f80fd5b506105df60048036038101906105da919061286b565b610eaa565b005b5f7f780e9d63000000000000000000000000000000000000000000000000000000007bffffffffffffffffffffffffffffffffffffffffffffffffffffffff1916827bffffffffffffffffffffffffffffffffffffffffffffffffffffffff19161480610653575061065282610f2e565b5b9050919050565b60605f805461066890612a87565b80601f016020809104026020016040519081016040528092919081815260200182805461069490612a87565b80156106df5780601f106106b6576101008083540402835291602001916106df565b820191905f5260205f20905b8154815290600101906020018083116106c257829003601f168201915b5050505050905090565b5f6106f38261100f565b506106fd82611095565b9050919050565b61071682826107116110ce565b6110d5565b5050565b600d5434101561076157346040517f1843352f00000000000000000000000000000000000000000000000000000000815260040161075891906125b8565b60405180910390fd5b5f61076c600b6110e7565b905061077f6107796110ce565b826110f3565b610787610c08565b73ffffffffffffffffffffffffffffffffffffffff166108fc3490811502906040515f60405180830381858888f193505050501580156107c9573d5f803e3d5ffd5b506107d4600b611110565b6107dc6110ce565b73ffffffffffffffffffffffffffffffffffffffff167f2fdf319518046f7b4ebc04a5ca363b42da5e87f5e8150935b3e4ef1ee4509e1a8260405161082191906125b8565b60405180910390a250565b5f600880549050905090565b5f73ffffffffffffffffffffffffffffffffffffffff168273ffffffffffffffffffffffffffffffffffffffff16036108a8575f6040517f64a0ae9200000000000000000000000000000000000000000000000000000000815260040161089f9190612528565b60405180910390fd5b5f6108bb83836108b66110ce565b611124565b90508373ffffffffffffffffffffffffffffffffffffffff168173ffffffffffffffffffffffffffffffffffffffff1614610931578382826040517f64283d7b00000000000000000000000000000000000000000000000000000000815260040161092893929190612ab7565b60405180910390fd5b50505050565b5f61094183610b3f565b82106109865782826040517fa57d13dc00000000000000000000000000000000000000000000000000000000815260040161097d929190612aec565b60405180910390fd5b60065f8473ffffffffffffffffffffffffffffffffffffffff1673ffffffffffffffffffffffffffffffffffffffff1681526020019081526020015f205f8381526020019081526020015f2054905092915050565b6109f583838360405180602001604052805f815250610d99565b505050565b60605f610a0561082c565b90505f8167ffffffffffffffff811115610a2257610a21612700565b5b604051908082528060200260200182016040528015610a505781602001602082028036833780820191505090505b5090505f5b82811015610a9857610a6681610aa1565b828281518110610a7957610a78612b13565b5b6020026020010181815250508080610a9090612b6d565b915050610a55565b50809250505090565b5f610aaa61082c565b8210610aef575f826040517fa57d13dc000000000000000000000000000000000000000000000000000000008152600401610ae6929190612aec565b60405180910390fd5b60088281548110610b0357610b02612b13565b5b905f5260205f2001549050919050565b610b1b61123e565b80600c9081610b2a9190612d51565b5050565b5f610b388261100f565b9050919050565b5f8073ffffffffffffffffffffffffffffffffffffffff168273ffffffffffffffffffffffffffffffffffffffff1603610bb0575f6040517f89c62b64000000000000000000000000000000000000000000000000000000008152600401610ba79190612528565b60405180910390fd5b60035f8373ffffffffffffffffffffffffffffffffffffffff1673ffffffffffffffffffffffffffffffffffffffff1681526020019081526020015f20549050919050565b610bfd61123e565b610c065f6112c5565b565b5f600a5f9054906101000a900473ffffffffffffffffffffffffffffffffffffffff16905090565b610c3861123e565b80600d8190555050565b606060018054610c5190612a87565b80601f0160208091040260200160405190810160405280929190818152602001828054610c7d90612a87565b8015610cc85780601f10610c9f57610100808354040283529160200191610cc8565b820191905f5260205f20905b815481529060010190602001808311610cab57829003601f168201915b5050505050905090565b60605f610cde83610b3f565b90505f8167ffffffffffffffff811115610cfb57610cfa612700565b5b604051908082528060200260200182016040528015610d295781602001602082028036833780820191505090505b5090505f5b82811015610d7257610d408582610937565b828281518110610d5357610d52612b13565b5b6020026020010181815250508080610d6a90612b6d565b915050610d2e565b508092505050919050565b600d5481565b610d95610d8e6110ce565b8383611388565b5050565b610da4848484610838565b610db0848484846114f1565b50505050565b6060610dc18261100f565b505f610dcb6116a3565b90505f815111610de95760405180602001604052805f815250610e14565b80610df384611733565b604051602001610e04929190612e5a565b6040516020818303038152906040525b915050919050565b5f60055f8473ffffffffffffffffffffffffffffffffffffffff1673ffffffffffffffffffffffffffffffffffffffff1681526020019081526020015f205f8373ffffffffffffffffffffffffffffffffffffffff1673ffffffffffffffffffffffffffffffffffffffff1681526020019081526020015f205f9054906101000a900460ff16905092915050565b610eb261123e565b5f73ffffffffffffffffffffffffffffffffffffffff168173ffffffffffffffffffffffffffffffffffffffff1603610f22575f6040517f1e4fbdf7000000000000000000000000000000000000000000000000000000008152600401610f199190612528565b60405180910390fd5b610f2b816112c5565b50565b5f7f80ac58cd000000000000000000000000000000000000000000000000000000007bffffffffffffffffffffffffffffffffffffffffffffffffffffffff1916827bffffffffffffffffffffffffffffffffffffffffffffffffffffffff19161480610ff857507f5b5e139f000000000000000000000000000000000000000000000000000000007bffffffffffffffffffffffffffffffffffffffffffffffffffffffff1916827bffffffffffffffffffffffffffffffffffffffffffffffffffffffff1916145b806110085750611007826117fd565b5b9050919050565b5f8061101a83611866565b90505f73ffffffffffffffffffffffffffffffffffffffff168173ffffffffffffffffffffffffffffffffffffffff160361108c57826040517f7e27328900000000000000000000000000000000000000000000000000000000815260040161108391906125b8565b60405180910390fd5b80915050919050565b5f60045f8381526020019081526020015f205f9054906101000a900473ffffffffffffffffffffffffffffffffffffffff169050919050565b5f33905090565b6110e2838383600161189f565b505050565b5f815f01549050919050565b61110c828260405180602001604052805f815250611a5e565b5050565b6001815f015f828254019250508190555050565b5f80611131858585611a79565b90505f73ffffffffffffffffffffffffffffffffffffffff168173ffffffffffffffffffffffffffffffffffffffff16036111745761116f84611c84565b6111b3565b8473ffffffffffffffffffffffffffffffffffffffff168173ffffffffffffffffffffffffffffffffffffffff16146111b2576111b18185611cc8565b5b5b5f73ffffffffffffffffffffffffffffffffffffffff168573ffffffffffffffffffffffffffffffffffffffff16036111f4576111ef84611e12565b611233565b8473ffffffffffffffffffffffffffffffffffffffff168173ffffffffffffffffffffffffffffffffffffffff1614611232576112318585611ed2565b5b5b809150509392505050565b6112466110ce565b73ffffffffffffffffffffffffffffffffffffffff16611264610c08565b73ffffffffffffffffffffffffffffffffffffffff16146112c3576112876110ce565b6040517f118cdaa70000000000000000000000000000000000000000000000000000000081526004016112ba9190612528565b60405180910390fd5b565b5f600a5f9054906101000a900473ffffffffffffffffffffffffffffffffffffffff16905081600a5f6101000a81548173ffffffffffffffffffffffffffffffffffffffff021916908373ffffffffffffffffffffffffffffffffffffffff1602179055508173ffffffffffffffffffffffffffffffffffffffff168173ffffffffffffffffffffffffffffffffffffffff167f8be0079c531659141344cd1fd0a4f28419497f9722a3daafe3b4186f6b6457e060405160405180910390a35050565b5f73ffffffffffffffffffffffffffffffffffffffff168273ffffffffffffffffffffffffffffffffffffffff16036113f857816040517f5b08ba180000000000000000000000000000000000000000000000000000000081526004016113ef9190612528565b60405180910390fd5b8060055f8573ffffffffffffffffffffffffffffffffffffffff1673ffffffffffffffffffffffffffffffffffffffff1681526020019081526020015f205f8473ffffffffffffffffffffffffffffffffffffffff1673ffffffffffffffffffffffffffffffffffffffff1681526020019081526020015f205f6101000a81548160ff0219169083151502179055508173ffffffffffffffffffffffffffffffffffffffff168373ffffffffffffffffffffffffffffffffffffffff167f17307eab39ab6107e8899845ad3d59bd9653f200f220920489ca2b5937696c31836040516114e491906123c8565b60405180910390a3505050565b5f8373ffffffffffffffffffffffffffffffffffffffff163b111561169d578273ffffffffffffffffffffffffffffffffffffffff1663150b7a026115346110ce565b8685856040518563ffffffff1660e01b81526004016115569493929190612ecf565b6020604051808303815f875af192505050801561159157506040513d601f19601f8201168201806040525081019061158e9190612f2d565b60015b611612573d805f81146115bf576040519150601f19603f3d011682016040523d82523d5f602084013e6115c4565b606091505b505f81510361160a57836040517f64a0ae920000000000000000000000000000000000000000000000000000000081526004016116019190612528565b60405180910390fd5b805181602001fd5b63150b7a0260e01b7bffffffffffffffffffffffffffffffffffffffffffffffffffffffff1916817bffffffffffffffffffffffffffffffffffffffffffffffffffffffff19161461169b57836040517f64a0ae920000000000000000000000000000000000000000000000000000000081526004016116929190612528565b60405180910390fd5b505b50505050565b6060600c80546116b290612a87565b80601f01602080910402602001604051908101604052809291908181526020018280546116de90612a87565b80156117295780601f1061170057610100808354040283529160200191611729565b820191905f5260205f20905b81548152906001019060200180831161170c57829003601f168201915b5050505050905090565b60605f600161174184611f56565b0190505f8167ffffffffffffffff81111561175f5761175e612700565b5b6040519080825280601f01601f1916602001820160405280156117915781602001600182028036833780820191505090505b5090505f82602001820190505b6001156117f2578080600190039150507f3031323334353637383961626364656600000000000000000000000000000000600a86061a8153600a85816117e7576117e6612f58565b5b0494505f850361179e575b819350505050919050565b5f7f01ffc9a7000000000000000000000000000000000000000000000000000000007bffffffffffffffffffffffffffffffffffffffffffffffffffffffff1916827bffffffffffffffffffffffffffffffffffffffffffffffffffffffff1916149050919050565b5f60025f8381526020019081526020015f205f9054906101000a900473ffffffffffffffffffffffffffffffffffffffff169050919050565b80806118d757505f73ffffffffffffffffffffffffffffffffffffffff168273ffffffffffffffffffffffffffffffffffffffff1614155b15611a09575f6118e68461100f565b90505f73ffffffffffffffffffffffffffffffffffffffff168373ffffffffffffffffffffffffffffffffffffffff161415801561195057508273ffffffffffffffffffffffffffffffffffffffff168173ffffffffffffffffffffffffffffffffffffffff1614155b801561196357506119618184610e1c565b155b156119a557826040517fa9fbf51f00000000000000000000000000000000000000000000000000000000815260040161199c9190612528565b60405180910390fd5b8115611a0757838573ffffffffffffffffffffffffffffffffffffffff168273ffffffffffffffffffffffffffffffffffffffff167f8c5be1e5ebec7d5bd14f71427d1e84f3dd0314c0f7b2291e5b200ac8c7c3b92560405160405180910390a45b505b8360045f8581526020019081526020015f205f6101000a81548173ffffffffffffffffffffffffffffffffffffffff021916908373ffffffffffffffffffffffffffffffffffffffff16021790555050505050565b611a6883836120a7565b611a745f8484846114f1565b505050565b5f80611a8484611866565b90505f73ffffffffffffffffffffffffffffffffffffffff168373ffffffffffffffffffffffffffffffffffffffff1614611ac557611ac481848661219a565b5b5f73ffffffffffffffffffffffffffffffffffffffff168173ffffffffffffffffffffffffffffffffffffffff1614611b5057611b045f855f8061189f565b600160035f8373ffffffffffffffffffffffffffffffffffffffff1673ffffffffffffffffffffffffffffffffffffffff1681526020019081526020015f205f82825403925050819055505b5f73ffffffffffffffffffffffffffffffffffffffff168573ffffffffffffffffffffffffffffffffffffffff1614611bcf57600160035f8773ffffffffffffffffffffffffffffffffffffffff1673ffffffffffffffffffffffffffffffffffffffff1681526020019081526020015f205f82825401925050819055505b8460025f8681526020019081526020015f205f6101000a81548173ffffffffffffffffffffffffffffffffffffffff021916908373ffffffffffffffffffffffffffffffffffffffff160217905550838573ffffffffffffffffffffffffffffffffffffffff168273ffffffffffffffffffffffffffffffffffffffff167fddf252ad1be2c89b69c2b068fc378daa952ba7f163c4a11628f55a4df523b3ef60405160405180910390a4809150509392505050565b60088054905060095f8381526020019081526020015f2081905550600881908060018154018082558091505060019003905f5260205f20015f909190919091505550565b5f611cd283610b3f565b90505f60075f8481526020019081526020015f20549050818114611da9575f60065f8673ffffffffffffffffffffffffffffffffffffffff1673ffffffffffffffffffffffffffffffffffffffff1681526020019081526020015f205f8481526020019081526020015f205490508060065f8773ffffffffffffffffffffffffffffffffffffffff1673ffffffffffffffffffffffffffffffffffffffff1681526020019081526020015f205f8481526020019081526020015f20819055508160075f8381526020019081526020015f2081905550505b60075f8481526020019081526020015f205f905560065f8573ffffffffffffffffffffffffffffffffffffffff1673ffffffffffffffffffffffffffffffffffffffff1681526020019081526020015f205f8381526020019081526020015f205f905550505050565b5f6001600880549050611e259190612f85565b90505f60095f8481526020019081526020015f205490505f60088381548110611e5157611e50612b13565b5b905f5260205f20015490508060088381548110611e7157611e70612b13565b5b905f5260205f2001819055508160095f8381526020019081526020015f208190555060095f8581526020019081526020015f205f90556008805480611eb957611eb8612fb8565b5b600190038181905f5260205f20015f9055905550505050565b5f6001611ede84610b3f565b611ee89190612f85565b90508160065f8573ffffffffffffffffffffffffffffffffffffffff1673ffffffffffffffffffffffffffffffffffffffff1681526020019081526020015f205f8381526020019081526020015f20819055508060075f8481526020019081526020015f2081905550505050565b5f805f90507a184f03e93ff9f4daa797ed6e38ed64bf6a1f0100000000000000008310611fb2577a184f03e93ff9f4daa797ed6e38ed64bf6a1f0100000000000000008381611fa857611fa7612f58565b5b0492506040810190505b6d04ee2d6d415b85acef81000000008310611fef576d04ee2d6d415b85acef81000000008381611fe557611fe4612f58565b5b0492506020810190505b662386f26fc10000831061201e57662386f26fc10000838161201457612013612f58565b5b0492506010810190505b6305f5e1008310612047576305f5e100838161203d5761203c612f58565b5b0492506008810190505b612710831061206c57612710838161206257612061612f58565b5b0492506004810190505b6064831061208f576064838161208557612084612f58565b5b0492506002810190505b600a831061209e576001810190505b80915050919050565b5f73ffffffffffffffffffffffffffffffffffffffff168273ffffffffffffffffffffffffffffffffffffffff1603612117575f6040517f64a0ae9200000000000000000000000000000000000000000000000000000000815260040161210e9190612528565b60405180910390fd5b5f61212383835f611124565b90505f73ffffffffffffffffffffffffffffffffffffffff168173ffffffffffffffffffffffffffffffffffffffff1614612195575f6040517f73c6ac6e00000000000000000000000000000000000000000000000000000000815260040161218c9190612528565b60405180910390fd5b505050565b6121a583838361225d565b612258575f73ffffffffffffffffffffffffffffffffffffffff168373ffffffffffffffffffffffffffffffffffffffff160361221957806040517f7e27328900000000000000000000000000000000000000000000000000000000815260040161221091906125b8565b60405180910390fd5b81816040517f177e802f00000000000000000000000000000000000000000000000000000000815260040161224f929190612aec565b60405180910390fd5b505050565b5f8073ffffffffffffffffffffffffffffffffffffffff168373ffffffffffffffffffffffffffffffffffffffff161415801561231457508273ffffffffffffffffffffffffffffffffffffffff168473ffffffffffffffffffffffffffffffffffffffff1614806122d557506122d48484610e1c565b5b8061231357508273ffffffffffffffffffffffffffffffffffffffff166122fb83611095565b73ffffffffffffffffffffffffffffffffffffffff16145b5b90509392505050565b5f604051905090565b5f80fd5b5f80fd5b5f7fffffffff0000000000000000000000000000000000000000000000000000000082169050919050565b6123628161232e565b811461236c575f80fd5b50565b5f8135905061237d81612359565b92915050565b5f6020828403121561239857612397612326565b5b5f6123a58482850161236f565b91505092915050565b5f8115159050919050565b6123c2816123ae565b82525050565b5f6020820190506123db5f8301846123b9565b92915050565b5f81519050919050565b5f82825260208201905092915050565b5f5b838110156124185780820151818401526020810190506123fd565b5f8484015250505050565b5f601f19601f8301169050919050565b5f61243d826123e1565b61244781856123eb565b93506124578185602086016123fb565b61246081612423565b840191505092915050565b5f6020820190508181035f8301526124838184612433565b905092915050565b5f819050919050565b61249d8161248b565b81146124a7575f80fd5b50565b5f813590506124b881612494565b92915050565b5f602082840312156124d3576124d2612326565b5b5f6124e0848285016124aa565b91505092915050565b5f73ffffffffffffffffffffffffffffffffffffffff82169050919050565b5f612512826124e9565b9050919050565b61252281612508565b82525050565b5f60208201905061253b5f830184612519565b92915050565b61254a81612508565b8114612554575f80fd5b50565b5f8135905061256581612541565b92915050565b5f806040838503121561258157612580612326565b5b5f61258e85828601612557565b925050602061259f858286016124aa565b9150509250929050565b6125b28161248b565b82525050565b5f6020820190506125cb5f8301846125a9565b92915050565b5f805f606084860312156125e8576125e7612326565b5b5f6125f586828701612557565b935050602061260686828701612557565b9250506040612617868287016124aa565b9150509250925092565b5f81519050919050565b5f82825260208201905092915050565b5f819050602082019050919050565b6126538161248b565b82525050565b5f612664838361264a565b60208301905092915050565b5f602082019050919050565b5f61268682612621565b612690818561262b565b935061269b8361263b565b805f5b838110156126cb5781516126b28882612659565b97506126bd83612670565b92505060018101905061269e565b5085935050505092915050565b5f6020820190508181035f8301526126f0818461267c565b905092915050565b5f80fd5b5f80fd5b7f4e487b71000000000000000000000000000000000000000000000000000000005f52604160045260245ffd5b61273682612423565b810181811067ffffffffffffffff8211171561275557612754612700565b5b80604052505050565b5f61276761231d565b9050612773828261272d565b919050565b5f67ffffffffffffffff82111561279257612791612700565b5b61279b82612423565b9050602081019050919050565b828183375f83830152505050565b5f6127c86127c384612778565b61275e565b9050828152602081018484840111156127e4576127e36126fc565b5b6127ef8482856127a8565b509392505050565b5f82601f83011261280b5761280a6126f8565b5b813561281b8482602086016127b6565b91505092915050565b5f6020828403121561283957612838612326565b5b5f82013567ffffffffffffffff8111156128565761285561232a565b5b612862848285016127f7565b91505092915050565b5f602082840312156128805761287f612326565b5b5f61288d84828501612557565b91505092915050565b61289f816123ae565b81146128a9575f80fd5b50565b5f813590506128ba81612896565b92915050565b5f80604083850312156128d6576128d5612326565b5b5f6128e385828601612557565b92505060206128f4858286016128ac565b9150509250929050565b5f67ffffffffffffffff82111561291857612917612700565b5b61292182612423565b9050602081019050919050565b5f61294061293b846128fe565b61275e565b90508281526020810184848401111561295c5761295b6126fc565b5b6129678482856127a8565b509392505050565b5f82601f830112612983576129826126f8565b5b813561299384826020860161292e565b91505092915050565b5f805f80608085870312156129b4576129b3612326565b5b5f6129c187828801612557565b94505060206129d287828801612557565b93505060406129e3878288016124aa565b925050606085013567ffffffffffffffff811115612a0457612a0361232a565b5b612a108782880161296f565b91505092959194509250565b5f8060408385031215612a3257612a31612326565b5b5f612a3f85828601612557565b9250506020612a5085828601612557565b9150509250929050565b7f4e487b71000000000000000000000000000000000000000000000000000000005f52602260045260245ffd5b5f6002820490506001821680612a9e57607f821691505b602082108103612ab157612ab0612a5a565b5b50919050565b5f606082019050612aca5f830186612519565b612ad760208301856125a9565b612ae46040830184612519565b949350505050565b5f604082019050612aff5f830185612519565b612b0c60208301846125a9565b9392505050565b7f4e487b71000000000000000000000000000000000000000000000000000000005f52603260045260245ffd5b7f4e487b71000000000000000000000000000000000000000000000000000000005f52601160045260245ffd5b5f612b778261248b565b91507fffffffffffffffffffffffffffffffffffffffffffffffffffffffffffffffff8203612ba957612ba8612b40565b5b600182019050919050565b5f819050815f5260205f209050919050565b5f6020601f8301049050919050565b5f82821b905092915050565b5f60088302612c107fffffffffffffffffffffffffffffffffffffffffffffffffffffffffffffffff82612bd5565b612c1a8683612bd5565b95508019841693508086168417925050509392505050565b5f819050919050565b5f612c55612c50612c4b8461248b565b612c32565b61248b565b9050919050565b5f819050919050565b612c6e83612c3b565b612c82612c7a82612c5c565b848454612be1565b825550505050565b5f90565b612c96612c8a565b612ca1818484612c65565b505050565b5b81811015612cc457612cb95f82612c8e565b600181019050612ca7565b5050565b601f821115612d0957612cda81612bb4565b612ce384612bc6565b81016020851015612cf2578190505b612d06612cfe85612bc6565b830182612ca6565b50505b505050565b5f82821c905092915050565b5f612d295f1984600802612d0e565b1980831691505092915050565b5f612d418383612d1a565b9150826002028217905092915050565b612d5a826123e1565b67ffffffffffffffff811115612d7357612d72612700565b5b612d7d8254612a87565b612d88828285612cc8565b5f60209050601f831160018114612db9575f8415612da7578287015190505b612db18582612d36565b865550612e18565b601f198416612dc786612bb4565b5f5b82811015612dee57848901518255600182019150602085019450602081019050612dc9565b86831015612e0b5784890151612e07601f891682612d1a565b8355505b6001600288020188555050505b505050505050565b5f81905092915050565b5f612e34826123e1565b612e3e8185612e20565b9350612e4e8185602086016123fb565b80840191505092915050565b5f612e658285612e2a565b9150612e718284612e2a565b91508190509392505050565b5f81519050919050565b5f82825260208201905092915050565b5f612ea182612e7d565b612eab8185612e87565b9350612ebb8185602086016123fb565b612ec481612423565b840191505092915050565b5f608082019050612ee25f830187612519565b612eef6020830186612519565b612efc60408301856125a9565b8181036060830152612f0e8184612e97565b905095945050505050565b5f81519050612f2781612359565b92915050565b5f60208284031215612f4257612f41612326565b5b5f612f4f84828501612f19565b91505092915050565b7f4e487b71000000000000000000000000000000000000000000000000000000005f52601260045260245ffd5b5f612f8f8261248b565b9150612f9a8361248b565b9250828203905081811115612fb257612fb1612b40565b5b92915050565b7f4e487b71000000000000000000000000000000000000000000000000000000005f52603160045260245ffdfea264697066735822122041e17d9acd305e9f5808ad590f2cb2b9358d9b0f5f09a8f45db4e6d0ae5ae41164736f6c63430008150033",
  "immutableReferences": {},
  "source": "// SPDX-License-Identifier: MIT\r\npragma solidity >=0.8.20;\r\n\r\nimport \"@openzeppelin/contracts/utils/Strings.sol\";\r\n\r\ninterface IERC165 {\r\n  function supportsInterface(bytes4 interfaceId) external view returns (bool);\r\n}\r\n\r\ninterface IERC721Errors {\r\n  error ERC721InvalidOwner(address owner);\r\n  error ERC721NonexistentToken(uint256 tokenId);\r\n  error ERC721IncorrectOwner(address sender, uint256 tokenId, address owner);\r\n  error ERC721InvalidSender(address sender);\r\n  error ERC721InvalidReceiver(address receiver);\r\n  error ERC721InsufficientApproval(address operator, uint256 tokenId);\r\n  error ERC721InvalidApprover(address approver);\r\n  error ERC721InvalidOperator(address operator);\r\n}\r\n\r\ninterface IERC721Receiver {\r\n  function onERC721Received(\r\n    address operator,\r\n    address from,\r\n    uint256 tokenId,\r\n    bytes calldata data\r\n  ) external returns (bytes4);\r\n}\r\n\r\ninterface IERC721 is IERC165 {\r\n  event Transfer(address indexed from, address indexed to, uint256 indexed tokenId);\r\n  event Approval(address indexed owner, address indexed approved, uint256 indexed tokenId);\r\n  event ApprovalForAll(address indexed owner, address indexed operator, bool approved);\r\n\r\n  function balanceOf(address owner) external view returns (uint256 balance);\r\n  function ownerOf(uint256 tokenId) external view returns (address owner);\r\n  function safeTransferFrom(address from, address to, uint256 tokenId, bytes calldata data) external;\r\n  function safeTransferFrom(address from, address to, uint256 tokenId) external;\r\n  function transferFrom(address from, address to, uint256 tokenId) external;\r\n  function approve(address to, uint256 tokenId) external;\r\n  function setApprovalForAll(address operator, bool approved) external;\r\n  function getApproved(uint256 tokenId) external view returns (address operator);\r\n  function isApprovedForAll(address owner, address operator) external view returns (bool);\r\n}\r\n\r\ninterface IERC721Metadata is IERC721 {\r\n  function name() external view returns (string memory);\r\n  function symbol() external view returns (string memory);\r\n  function tokenURI(uint256 tokenId) external view returns (string memory);\r\n}\r\n\r\ninterface IERC721Enumerable is IERC721 {\r\n  function totalSupply() external view returns (uint256);\r\n  function tokenOfOwnerByIndex(address owner, uint256 index) external view returns (uint256);\r\n  function tokenByIndex(uint256 index) external view returns (uint256);\r\n}\r\n\r\nlibrary Counters {\r\n  struct Counter {\r\n    uint256 _value;\r\n  }\r\n\r\n  function current(Counter storage counter) internal view returns (uint256) {\r\n    return counter._value;\r\n  }\r\n\r\n  function increment(Counter storage counter) internal {\r\n    unchecked {\r\n      counter._value += 1;\r\n    }\r\n  }\r\n\r\n  function decrement(Counter storage counter) internal {\r\n    uint256 value = counter._value;\r\n    require(value > 0, \"Counter: decrement overflow\");\r\n    unchecked {\r\n      counter._value = value - 1;\r\n    }\r\n  }\r\n\r\n  function reset(Counter storage counter) internal {\r\n    counter._value = 0;\r\n  }\r\n}\r\n\r\nabstract contract Context {\r\n  function _msgSender() internal view virtual returns (address) {\r\n    return msg.sender;\r\n  }\r\n\r\n  function _msgData() internal view virtual returns (bytes calldata) {\r\n    return msg.data;\r\n  }\r\n\r\n  function _contextSuffixLength() internal view virtual returns (uint256) {\r\n    return 0;\r\n  }\r\n}\r\n\r\nabstract contract Ownable is Context {\r\n  error OwnableUnauthorizedAccount(address account);\r\n  error OwnableInvalidOwner(address owner);\r\n\r\n  address private _owner;\r\n\r\n  event OwnershipTransferred(address indexed previousOwner, address indexed newOwner);\r\n\r\n  constructor(address initialOwner) {\r\n    if (initialOwner == address(0)) {\r\n      revert OwnableInvalidOwner(address(0));\r\n    }\r\n    _transferOwnership(initialOwner);\r\n  }\r\n\r\n  modifier onlyOwner() {\r\n    _checkOwner();\r\n    _;\r\n  }\r\n\r\n  function owner() public view virtual returns (address) {\r\n    return _owner;\r\n  }\r\n\r\n  function _checkOwner() internal view virtual {\r\n    if (owner() != _msgSender()) {\r\n      revert OwnableUnauthorizedAccount(_msgSender());\r\n    }\r\n  }\r\n\r\n  function renounceOwnership() public virtual onlyOwner {\r\n    _transferOwnership(address(0));\r\n  }\r\n\r\n  function transferOwnership(address newOwner) public virtual onlyOwner {\r\n    if (newOwner == address(0)) {\r\n      revert OwnableInvalidOwner(address(0));\r\n    }\r\n    _transferOwnership(newOwner);\r\n  }\r\n\r\n  function _transferOwnership(address newOwner) internal virtual {\r\n    address oldOwner = _owner;\r\n    _owner = newOwner;\r\n    emit OwnershipTransferred(oldOwner, newOwner);\r\n  }\r\n}\r\n\r\nabstract contract ERC165 is IERC165 {\r\n  function supportsInterface(bytes4 interfaceId) public view virtual returns (bool) {\r\n    return interfaceId == type(IERC165).interfaceId;\r\n  }\r\n}\r\n\r\nabstract contract ERC721 is Context, ERC165, IERC721, IERC721Metadata, IERC721Errors {\r\n  using Strings for uint256;\r\n\r\n  string private _name;\r\n  string private _symbol;\r\n\r\n  mapping(uint256 tokenId => address) private _owners;\r\n  mapping(address owner => uint256) private _balances;\r\n  mapping(uint256 tokenId => address) private _tokenApprovals;\r\n  mapping(address owner => mapping(address operator => bool)) private _operatorApprovals;\r\n\r\n  constructor(string memory name_, string memory symbol_) {\r\n    _name = name_;\r\n    _symbol = symbol_;\r\n  }\r\n\r\n  function supportsInterface(bytes4 interfaceId) public view virtual override(ERC165, IERC165) returns (bool) {\r\n    return\r\n      interfaceId == type(IERC721).interfaceId ||\r\n      interfaceId == type(IERC721Metadata).interfaceId ||\r\n      super.supportsInterface(interfaceId);\r\n  }\r\n\r\n  function balanceOf(address owner) public view virtual returns (uint256) {\r\n    if (owner == address(0)) {\r\n      revert ERC721InvalidOwner(address(0));\r\n    }\r\n    return _balances[owner];\r\n  }\r\n\r\n  function ownerOf(uint256 tokenId) public view virtual returns (address) {\r\n    return _requireOwned(tokenId);\r\n  }\r\n\r\n  function name() public view virtual returns (string memory) {\r\n    return _name;\r\n  }\r\n\r\n  function symbol() public view virtual returns (string memory) {\r\n    return _symbol;\r\n  }\r\n\r\n  function tokenURI(uint256 tokenId) public view virtual returns (string memory) {\r\n    _requireOwned(tokenId);\r\n\r\n    string memory baseURI = _baseURI();\r\n    return bytes(baseURI).length > 0 ? string.concat(baseURI, tokenId.toString()) : \"\";\r\n  }\r\n\r\n  function _baseURI() internal view virtual returns (string memory) {\r\n    return \"\";\r\n  }\r\n\r\n  function approve(address to, uint256 tokenId) public virtual {\r\n    _approve(to, tokenId, _msgSender());\r\n  }\r\n\r\n  function getApproved(uint256 tokenId) public view virtual returns (address) {\r\n    _requireOwned(tokenId);\r\n\r\n    return _getApproved(tokenId);\r\n  }\r\n\r\n  function setApprovalForAll(address operator, bool approved) public virtual {\r\n    _setApprovalForAll(_msgSender(), operator, approved);\r\n  }\r\n\r\n  function isApprovedForAll(address owner, address operator) public view virtual returns (bool) {\r\n    return _operatorApprovals[owner][operator];\r\n  }\r\n\r\n  function transferFrom(address from, address to, uint256 tokenId) public virtual {\r\n    if (to == address(0)) {\r\n      revert ERC721InvalidReceiver(address(0));\r\n    }\r\n\r\n    address previousOwner = _update(to, tokenId, _msgSender());\r\n    if (previousOwner != from) {\r\n      revert ERC721IncorrectOwner(from, tokenId, previousOwner);\r\n    }\r\n  }\r\n\r\n  function safeTransferFrom(address from, address to, uint256 tokenId) public {\r\n    safeTransferFrom(from, to, tokenId, \"\");\r\n  }\r\n\r\n  function safeTransferFrom(address from, address to, uint256 tokenId, bytes memory data) public virtual {\r\n    transferFrom(from, to, tokenId);\r\n    _checkOnERC721Received(from, to, tokenId, data);\r\n  }\r\n\r\n  function _ownerOf(uint256 tokenId) internal view virtual returns (address) {\r\n    return _owners[tokenId];\r\n  }\r\n\r\n  function _getApproved(uint256 tokenId) internal view virtual returns (address) {\r\n    return _tokenApprovals[tokenId];\r\n  }\r\n\r\n  function _isAuthorized(address owner, address spender, uint256 tokenId) internal view virtual returns (bool) {\r\n    return\r\n      spender != address(0) &&\r\n      (owner == spender || isApprovedForAll(owner, spender) || _getApproved(tokenId) == spender);\r\n  }\r\n\r\n  function _checkAuthorized(address owner, address spender, uint256 tokenId) internal view virtual {\r\n    if (!_isAuthorized(owner, spender, tokenId)) {\r\n      if (owner == address(0)) {\r\n        revert ERC721NonexistentToken(tokenId);\r\n      } else {\r\n        revert ERC721InsufficientApproval(spender, tokenId);\r\n      }\r\n    }\r\n  }\r\n\r\n  function _increaseBalance(address account, uint128 value) internal virtual {\r\n    unchecked {\r\n      _balances[account] += value;\r\n    }\r\n  }\r\n\r\n  function _update(address to, uint256 tokenId, address auth) internal virtual returns (address) {\r\n    address from = _ownerOf(tokenId);\r\n\r\n    if (auth != address(0)) {\r\n      _checkAuthorized(from, auth, tokenId);\r\n    }\r\n\r\n    if (from != address(0)) {\r\n      _approve(address(0), tokenId, address(0), false);\r\n\r\n      unchecked {\r\n        _balances[from] -= 1;\r\n      }\r\n    }\r\n\r\n    if (to != address(0)) {\r\n      unchecked {\r\n        _balances[to] += 1;\r\n      }\r\n    }\r\n\r\n    _owners[tokenId] = to;\r\n\r\n    emit Transfer(from, to, tokenId);\r\n\r\n    return from;\r\n  }\r\n\r\n  function _mint(address to, uint256 tokenId) internal {\r\n    if (to == address(0)) {\r\n      revert ERC721InvalidReceiver(address(0));\r\n    }\r\n    address previousOwner = _update(to, tokenId, address(0));\r\n    if (previousOwner != address(0)) {\r\n      revert ERC721InvalidSender(address(0));\r\n    }\r\n  }\r\n\r\n  function _safeMint(address to, uint256 tokenId) internal {\r\n    _safeMint(to, tokenId, \"\");\r\n  }\r\n\r\n  function _safeMint(address to, uint256 tokenId, bytes memory data) internal virtual {\r\n    _mint(to, tokenId);\r\n    _checkOnERC721Received(address(0), to, tokenId, data);\r\n  }\r\n\r\n  function _burn(uint256 tokenId) internal {\r\n    address previousOwner = _update(address(0), tokenId, address(0));\r\n    if (previousOwner == address(0)) {\r\n      revert ERC721NonexistentToken(tokenId);\r\n    }\r\n  }\r\n\r\n  function _transfer(address from, address to, uint256 tokenId) internal {\r\n    if (to == address(0)) {\r\n      revert ERC721InvalidReceiver(address(0));\r\n    }\r\n    address previousOwner = _update(to, tokenId, address(0));\r\n    if (previousOwner == address(0)) {\r\n      revert ERC721NonexistentToken(tokenId);\r\n    } else if (previousOwner != from) {\r\n      revert ERC721IncorrectOwner(from, tokenId, previousOwner);\r\n    }\r\n  }\r\n\r\n  function _safeTransfer(address from, address to, uint256 tokenId) internal {\r\n    _safeTransfer(from, to, tokenId, \"\");\r\n  }\r\n\r\n  function _safeTransfer(address from, address to, uint256 tokenId, bytes memory data) internal virtual {\r\n    _transfer(from, to, tokenId);\r\n    _checkOnERC721Received(from, to, tokenId, data);\r\n  }\r\n\r\n  function _approve(address to, uint256 tokenId, address auth) internal {\r\n    _approve(to, tokenId, auth, true);\r\n  }\r\n\r\n  function _approve(address to, uint256 tokenId, address auth, bool emitEvent) internal virtual {\r\n    if (emitEvent || auth != address(0)) {\r\n      address owner = _requireOwned(tokenId);\r\n\r\n      if (auth != address(0) && owner != auth && !isApprovedForAll(owner, auth)) {\r\n        revert ERC721InvalidApprover(auth);\r\n      }\r\n\r\n      if (emitEvent) {\r\n        emit Approval(owner, to, tokenId);\r\n      }\r\n    }\r\n\r\n    _tokenApprovals[tokenId] = to;\r\n  }\r\n\r\n  function _setApprovalForAll(address owner, address operator, bool approved) internal virtual {\r\n    if (operator == address(0)) {\r\n      revert ERC721InvalidOperator(operator);\r\n    }\r\n    _operatorApprovals[owner][operator] = approved;\r\n    emit ApprovalForAll(owner, operator, approved);\r\n  }\r\n\r\n  function _requireOwned(uint256 tokenId) internal view returns (address) {\r\n    address owner = _ownerOf(tokenId);\r\n    if (owner == address(0)) {\r\n      revert ERC721NonexistentToken(tokenId);\r\n    }\r\n    return owner;\r\n  }\r\n\r\n  function _checkOnERC721Received(address from, address to, uint256 tokenId, bytes memory data) private {\r\n    if (to.code.length > 0) {\r\n      try IERC721Receiver(to).onERC721Received(_msgSender(), from, tokenId, data) returns (bytes4 retval) {\r\n        if (retval != IERC721Receiver.onERC721Received.selector) {\r\n          revert ERC721InvalidReceiver(to);\r\n        }\r\n      } catch (bytes memory reason) {\r\n        if (reason.length == 0) {\r\n          revert ERC721InvalidReceiver(to);\r\n        } else {\r\n          /// @solidity memory-safe-assembly\r\n          assembly {\r\n            revert(add(32, reason), mload(reason))\r\n          }\r\n        }\r\n      }\r\n    }\r\n  }\r\n}\r\n\r\nabstract contract ERC721Enumerable is ERC721, IERC721Enumerable {\r\n  mapping(address owner => mapping(uint256 index => uint256)) private _ownedTokens;\r\n  mapping(uint256 tokenId => uint256) private _ownedTokensIndex;\r\n\r\n  uint256[] private _allTokens;\r\n  mapping(uint256 tokenId => uint256) private _allTokensIndex;\r\n\r\n  error ERC721OutOfBoundsIndex(address owner, uint256 index);\r\n  error ERC721EnumerableForbiddenBatchMint();\r\n\r\n  function supportsInterface(bytes4 interfaceId) public view virtual override(IERC165, ERC721) returns (bool) {\r\n    return interfaceId == type(IERC721Enumerable).interfaceId || super.supportsInterface(interfaceId);\r\n  }\r\n\r\n  function tokenOfOwnerByIndex(address owner, uint256 index) public view virtual returns (uint256) {\r\n    if (index >= balanceOf(owner)) {\r\n      revert ERC721OutOfBoundsIndex(owner, index);\r\n    }\r\n    return _ownedTokens[owner][index];\r\n  }\r\n\r\n  function totalSupply() public view virtual returns (uint256) {\r\n    return _allTokens.length;\r\n  }\r\n\r\n  function tokenByIndex(uint256 index) public view virtual returns (uint256) {\r\n    if (index >= totalSupply()) {\r\n      revert ERC721OutOfBoundsIndex(address(0), index);\r\n    }\r\n    return _allTokens[index];\r\n  }\r\n\r\n  function _update(address to, uint256 tokenId, address auth) internal virtual override returns (address) {\r\n    address previousOwner = super._update(to, tokenId, auth);\r\n\r\n    if (previousOwner == address(0)) {\r\n      _addTokenToAllTokensEnumeration(tokenId);\r\n    } else if (previousOwner != to) {\r\n      _removeTokenFromOwnerEnumeration(previousOwner, tokenId);\r\n    }\r\n    if (to == address(0)) {\r\n      _removeTokenFromAllTokensEnumeration(tokenId);\r\n    } else if (previousOwner != to) {\r\n      _addTokenToOwnerEnumeration(to, tokenId);\r\n    }\r\n\r\n    return previousOwner;\r\n  }\r\n\r\n  function _addTokenToOwnerEnumeration(address to, uint256 tokenId) private {\r\n    uint256 length = balanceOf(to) - 1;\r\n    _ownedTokens[to][length] = tokenId;\r\n    _ownedTokensIndex[tokenId] = length;\r\n  }\r\n\r\n  function _addTokenToAllTokensEnumeration(uint256 tokenId) private {\r\n    _allTokensIndex[tokenId] = _allTokens.length;\r\n    _allTokens.push(tokenId);\r\n  }\r\n\r\n  function _removeTokenFromOwnerEnumeration(address from, uint256 tokenId) private {\r\n    uint256 lastTokenIndex = balanceOf(from);\r\n    uint256 tokenIndex = _ownedTokensIndex[tokenId];\r\n\r\n    if (tokenIndex != lastTokenIndex) {\r\n      uint256 lastTokenId = _ownedTokens[from][lastTokenIndex];\r\n\r\n      _ownedTokens[from][tokenIndex] = lastTokenId;\r\n      _ownedTokensIndex[lastTokenId] = tokenIndex;\r\n    }\r\n\r\n    delete _ownedTokensIndex[tokenId];\r\n    delete _ownedTokens[from][lastTokenIndex];\r\n  }\r\n\r\n  function _removeTokenFromAllTokensEnumeration(uint256 tokenId) private {\r\n    uint256 lastTokenIndex = _allTokens.length - 1;\r\n    uint256 tokenIndex = _allTokensIndex[tokenId];\r\n\r\n    uint256 lastTokenId = _allTokens[lastTokenIndex];\r\n\r\n    _allTokens[tokenIndex] = lastTokenId;\r\n    _allTokensIndex[lastTokenId] = tokenIndex;\r\n\r\n    delete _allTokensIndex[tokenId];\r\n    _allTokens.pop();\r\n  }\r\n\r\n  function _increaseBalance(address account, uint128 amount) internal virtual override {\r\n    if (amount > 0) {\r\n      revert ERC721EnumerableForbiddenBatchMint();\r\n    }\r\n    super._increaseBalance(account, amount);\r\n  }\r\n}\r\n\r\ncontract SnatchVeggiesLand is ERC721Enumerable, Ownable {\r\n  using Counters for Counters.Counter;\r\n  Counters.Counter private tokenIdCounter;\r\n\r\n  error ValueNotEnough(uint256 value);\r\n\r\n  string private baseUri;\r\n  uint256 public price = 0;\r\n\r\n  event MintNft(address indexed buyer, uint256 tokenId);\r\n\r\n  constructor(string memory _baseUri) ERC721(\"Snatch Veggies Land\", \"SVLAND\") Ownable(_msgSender()) {\r\n    baseUri = _baseUri;\r\n  }\r\n\r\n  function mint() external payable {\r\n    if (msg.value < price) {\r\n      revert ValueNotEnough(msg.value);\r\n    }\r\n\r\n    uint256 tokenId = tokenIdCounter.current();\r\n\r\n    _safeMint(_msgSender(), tokenId);\r\n    payable(owner()).transfer(msg.value);\r\n\r\n    tokenIdCounter.increment();\r\n\r\n    emit MintNft(_msgSender(), tokenId);\r\n  }\r\n\r\n  function listTokenIdsByOwner(address owner) public view returns (uint256[] memory) {\r\n    uint256 balance = balanceOf(owner);\r\n    uint256[] memory tokenIds = new uint256[](balance);\r\n    for (uint256 i = 0; i < balance; i++) {\r\n      tokenIds[i] = tokenOfOwnerByIndex(owner, i);\r\n    }\r\n    return tokenIds;\r\n  }\r\n\r\n  function listAllTokenIds() public view returns (uint256[] memory) {\r\n    uint256 totalTokens = totalSupply();\r\n    uint256[] memory tokenIds = new uint256[](totalTokens);\r\n    for (uint256 i = 0; i < totalTokens; i++) {\r\n      tokenIds[i] = tokenByIndex(i);\r\n    }\r\n    return tokenIds;\r\n  }\r\n\r\n  function _baseURI() internal view virtual override returns (string memory) {\r\n    return baseUri;\r\n  }\r\n\r\n  function setPrice(uint256 _price) external onlyOwner {\r\n    price = _price;\r\n  }\r\n\r\n  function setBaseURI(string memory _baseUri) external onlyOwner {\r\n    baseUri = _baseUri;\r\n  }\r\n}\r\n",
  "sourcePath": "E:\\games\\snatch-veggies\\smartcontracts\\contracts\\SnatchVeggiesLand.sol",
  "compiler": {
    "name": "solc",
    "version": "0.8.21+commit.d9974bed.Emscripten.clang"
  },
  "schemaVersion": "3.4.16",
  "updatedAt": "2025-01-09T13:11:01.941Z",
  "devdoc": {
    "kind": "dev",
    "methods": {},
    "version": 1
  },
  "userdoc": {
    "kind": "user",
    "methods": {},
    "version": 1
  }
}